:040000000FEF3FF0CF
:107E1E000C6A0B6A0A6A096A086A00015FEF3FF092
:107E2E0035D0000ED66E82A8FED782B8FED7D6CF3A
:107E3E0004F0960E046003D0000E026EF2D7080E08
:107E4E00036E1ED0000ED66E82A8FED782B8FED765
:107E5E00D6CF04F0950E046401D015D0640E0460E4
:107E6E0002D0019004D0960E04600DD00180030460
:107E7E00D8A402D0030607D001500124016E0306D8
:107E8E000350D8A4DFD70350D8B403D0000E026E2F
:107E9E000BD00250010D080EF324D96E000EF42003
:107EAE00DA6E01C0DFFF022A020E0264BAD7120098
:107EBE00D3508F0B6009D36E94880F013A99829834
:107ECE0092920F013893928A0F01389B809A929E5C
:107EDE00809E9490829093960F0139978196939AF3
:107EEE000F01399B819A94940F013A958294949242
:107EFE00829296900F013C91849095920F013B9344
:107F0E008392D58CD59AD596D550F80B0109D56E9E
:107F1E00D58E17EC3FF009C007F007AC02D089826E
:107F2E0001D0899207BE07BC17D080AA14D08982CF
:107F3E008B948B828D908C828A868A8A020E066E34
:107F4E00040E056EBA0EE82EFED7052EFCD7062EB1
:107F5E00FAD700D001D0899207AA03D0898E8B80E0
:107F6E0002D0899E8B9007C005F00F0E0516D8A47F
:107F7E0002D08B9406D007500F0BE806D8A404D07D
:107F8E008B848B928D8031D007500F0B030AD8A4AF
:107F9E0002D08B8428D007500F0B0C0AD8A406D021
:107FAE008B948B928D908C828A8621D007500F0BEA
:107FBE000D0AD8A406D08B948B828D908C828A86E3
:107FCE000AD007500F0B0F0AD8A407D08B948B82C0
:107FDE008D908C928A968A8A9CD707500C0B080A31
:107FEE00D8A497D78B948B928D908C928A968A9ADE
:027FFE0090D71A
:020000040020DA
:08000000FFFFFFFFFFFFFFFF00
:020000040030CA
:0E000000FF281F00FF3C85FF0FC00FE00F40E0
:00000001FF
