:02000000FD2BD6
:100390008312AD01A91FD329A809A909A80A031925
:1003A000A90AAD01AD0A2808A0002908A100A201F0
:1003B0008E30AB002B08A3002D08AC002C08A40045
:1003C0004F2283122008A8002108A9002208AA00B1
:1003D0000800FC3083169004851205168510F03055
:1003E0009F05CF3083129005901083128F018E01EC
:1003F00085160330CC00CC0BFB2983128512051E19
:10040000FF291014051A022A10100F08CF000E0839
:10041000CE004F08A9004E08A800C8218312280862
:10042000B1002908B2002A08B3000030AE00B03095
:10043000AF004230B000492383122E08BE002F08BF
:10044000BF003008C000BC2283123F08CF003E0826
:10045000CE004F08803ADF0080305F02031D322A51
:1004600003304E02031C432A83124F08803ADF00F8
:1004700080305F02031D3E2A14304E020318432AC7
:1004800083128514452A831285100D30CD00FB3070
:10049000CC00CC0B492ACD0B492A4E2AF5298312D0
:1004A00023080319582A220821042004031D6B2A5B
:1004B0000030A0000030A1000030A2000800013090
:1004C000A5002508A30701300310A20CA10CA00C65
:1004D000FF3E031D642AFE3022050319862A5F2A87
:1004E0000130A5002508A3070130A007003003183C
:1004F0000130A107003003180130A20701300310BA
:10050000A20CA10CA00CFF3E031D7F2AFF30220588
:100510000319952A702A0130A30201300310A00D9F
:10052000A10DA20DFF3E031D8E2AA11B9B2A0230A6
:10053000230203188B2A2318A32AFF30A0057F303B
:10054000A105FF30A2050310A30C2308A500A601F6
:10055000A70110300310A50DA60DA70DFF3E031D2A
:10056000AA2A2508A0042608A1042708A204240812
:1005700003190800A217080083123E08C2003F08B2
:10058000C3004008C4000310430D440DC5004508D6
:10059000CB004B08031DD52A0030C1000030C0003D
:1005A0000030BF000030BE0008003E08C2003F0817
:1005B000C3004008C40017300310C40CC30CC20CA5
:1005C000FF3E031DDC2A4208C5004508C600BF17D0
:1005D000FF30BE05FF30BF050030C0053E08C70034
:1005E0003F08C8004008C900CA018E30CB02CB1FAB
:1005F000172B4B08803A8F3E0318072B0030C100A1
:100600000030C0000030BF000030BE0008000130E4
:100610000310CA0CC90CC80CC70CFF3E031D082BE5
:100620000130C2004208CB070319322B072B1830C8
:100630004B02031C2F2B0030C1000030C0000030E3
:10064000BF000030BE0008000130C2000310C70D1B
:10065000C80DC90DCA0DC20B262B0130CB024B08A9
:10066000031D242B46080319402BC709C809C909D3
:10067000CA09C70A0319C80A0319C90A0319CA0A09
:100680004A08C1004908C0004808BF004708BE002A
:10069000080083123108B4003208B5003308B600F0
:1006A0000310350D360DB7003708BC003C08031D9C
:1006B000602B0030AE000030AF000030B00008000A
:1006C0002E08B4002F08B5003008B6000310350D11
:1006D000360DB7003708BD003D08031D762B0030EE
:1006E000AE000030AF000030B00008000030B900AC
:1006F0000030BA000030BB0089303D07B400340838
:10070000BC023108B4003208B5003308B60010301E
:100710000310B60CB50CB40CFF3E031D882B340837
:10072000B7003708BD002E08B4002F08B500300808
:10073000B60010300310B60CB50CB40CFF3E031D10
:100740009A2B3408B7003708BD068030B40034084F
:10075000BD05B217FF30B105FF30B2050030B3055B
:10076000AF17FF30AE05FF30AF050030B0051830D1
:10077000B4003408B80001300310B90DBA0DBB0D38
:10078000FF3E031DBC2B30083302031DCD2B2F0869
:100790003202031DCD2B2E083102031CDA2B2E084A
:1007A000B1022F08031C2F0FB2023008031C300ABD
:1007B000B302391401300310B10DB20DB30DFF3E79
:1007C000031DDB2B0130B802031DBB2B3908A00031
:1007D0003A08A1003B08A2003C08B4003408A3007A
:1007E0003D08B5003508A4004F2283122008AE0052
:0E07F0002108AF002208B00008008301E929AB
:02400E00D431AB
:00000001FF
