:060000000A128A11FC2F18
:100E4A00F2004230F000F00B282F00008312031347
:100E5A008716A630F000F00B302F00008312031320
:100E6A008712F30108307302031808002130F000DA
:100E7A00F00B3D2F7208F00007300310F00CFF3E14
:100E8A00031D422F701C4E2F4230F000F00B4B2FE7
:100E9A0000008312031387164230F000F00B532F21
:100EAA0000008312031387127208F0007007F10022
:100EBA007108F2000130F0007008F307372F83162B
:100ECA00031305148514F0309F059F138614061525
:100EDA00061687128312031387128030F4007408EF
:100EEA00F500831203131F08C73908389F001F082B
:100EFA003F3940389F001F140D30F400F40B832F44
:100F0A00831203131F151F19882F1F10FB301E028F
:100F1A00031C942F03138312F5157515A32F05309F
:100F2A00831203131E0203189F2F03138312F51152
:100F3A007511A32F03138312F5157511C730831288
:100F4A0003139F051F083F3940389F001F140D30B7
:100F5A00F400F40BAE2F831203131F151F19B32FBE
:100F6A001F10C9301E02031CBF2F03138312F51072
:100F7A007510CE2F3230831203131E020318CA2FA4
:100F8A0003138312F5147514CE2F03138312F5106D
:100F9A00751483120313861CD62F03138312751339
:100FAA00DB2F8618DB2F03138312751783120313A3
:100FBA00061DE32F03138312F516E82F0619E82FEF
:100FCA0003138312F51283120313061EF02F031361
:100FDA008312F517F52F061AF52F03138312F5134B
:100FEA0075080A128A1125270A128A11762F830197
:060FFA000A128A11642FA7
:02400E007A3FF7
:00000001FF
